:020000040800F2
:100000004012002009090008D1050008F508000881
:10001000F5080008F5080008F508000800000000D1
:100020000000000000000000000000000D0A0008B1
:10003000F508000800000000D9090008E51B0008C9
:100040008D0B00088D0B00088D0B00088D0B000830
:100050008D0B00088D0B00088D0B00088D0B000820
:100060008D0B00088D0B00088D0B00088D0B000810
:100070008D0B00088D0B00088D0B00088D0B000800
:100080008D0B00088D0B00088D0B00088D0B0008F0
:100090008D0B00088D0B00088D0B00088D0B0008E0
:1000A0008D0B00088D0B00088D0B00088D0B0008D0
:1000B0008D0B00088D0B00088D0B00088D0B0008C0
:1000C0008D0B00088D0B00088D0B00088D0B0008B0
:1000D0008D0B00088D0B00088D0B00088D0B0008A0
:1000E0008D0B00088D0B00088D0B00088D0B000890
:1000F0008D0B00088D0B00088D0B00088D0B000880
:100100008D0B00088D0B00088D0B00088D0B00086F
:100110008D0B00088D0B00088D0B00088D0B00085F
:100120008D0B00088D0B00088D0B00088D0B00084F
:100130008D0B00088D0B00088D0B00088D0B00083F
:100140008D0B00088D0B00088D0B00088D0B00082F
:100150008D0B00088D0B00088D0B00088D0B00081F
:100160008D0B00088D0B00088D0B00088D0B00080F
:100170008D0B00088D0B00088D0B00088D0B0008FF
:080180008D0B00088D0B000837
:1001880053B94AB9002908BF00281CBF4FF0FF31F6
:100198004FF0FF3000F00CB8ADF1080C6DE904CE5B
:1001A80000F008F8DDF804E0DDE9022304B0704748
:1001B800704700BF2DE9F04786468C460846089EE2
:1001C800154674461946002B40F0C2808542B2FAA3
:1001D80082F245D94AB1C2F1200300FA02FC2EFA94
:1001E80003F3954043EA0C0C94404FEA154EA8B22D
:1001F800BCFBFEF8230C0EFB18CC08FB00F943EA05
:100208000C43994528D9EB1808F1FF3704D29945D2
:1002180002D9A8F102072B44A3EB0903A4B2B3FB4C
:10022800FEFC0EFB1C330CFB00F044EA0344A04226
:1002380014D92C190CF1FF3304D2A04202D9ACF125
:1002480002032C44241A43EA07401EB1D440002379
:1002580034607360BDE8F0874746DDE76346F1E741
:1002680092BB431B01214FEA154EAFB2B3FBFEFC14
:10027800200C0EFB1C330CFB07F840EA034398459F
:1002880062D9EB180CF1FF3004D2984502D9ACF1D1
:1002980002002B44A3EB0803A4B2B3FBFEFC0EFB45
:1002A8001C330CFB07F744EA0344A7424ED92C1928
:1002B8000CF1FF3304D2A74202D9ACF102032C445B
:1002C800E41B43EA0040C0E7C2F1200320FA03F12F
:1002D800954090402EFA03F303434FEA154EAFB210
:1002E800B1FBFEFC0EFB1C10190C0CFB07F841EAD5
:1002F8000041884504FA02F422D969180CF1FF304C
:1003080004D2884502D9ACF102002944A1EB0801C6
:100318009BB2B1FBFEFC0EFB1C110CFB07F743EA7A
:1003280001439F420ED9EB180CF1FF3104D29F42D2
:1003380002D9ACF102012B44DB1B41EA004192E7F0
:100348006046E3E76146F7E76046A3E76346B7E739
:10035800834206D916B9002108467BE7C6E900E0C2
:10036800F9E7B3FA83F78FB9834201D3724508D806
:10037800BEEB020460EB030301209C461EB900217A
:1003880068E73846FAE7C6E9004CF8E7C7F1200CF9
:10039800BB4022FA0CF41C432EFA0CF120FA0CF3A1
:1003A800B84001434FEA14490EFA07F5B3FBF9F8D0
:1003B8001FFA84FE09FB18300B0C08FB0EFA43EAFF
:1003C80000439A4502FA07F240D9E31808F1FF30D2
:1003D80004D29A4502D9A8F102002344A3EB0A03E8
:1003E80089B2B3FBF9F809FB183308FB0EFE41EAA2
:1003F80003418E452CD9611808F1FF3304D28E458C
:1004080002D9A8F10203214443EA0040A0FB029864
:10041800A1EB0E014145CE46434602D306D14D45D8
:1004280004D2B9EB020E68EB04030138002EA6D003
:10043800B5EB0E0261EB030101FA0CFC22FA07F39B
:100448004CEA0303F940C6E9003198E74046C5E79E
:100458004346D9E7F0B5264E9FB01022002109A8DF
:1004680003F02DFD96E8070002AD85E8070003229A
:1004780005AF1146384603F0DBFB1E4C204603F05F
:100488008AFB28B91C4802F085FE00201FB0F0BD89
:10049800A36820465B689847014618B1174802F0E0
:1004A80079FEF2E74FF40073099344224DF20703F3
:1004B80006F10C010DA8ADF82C3003F0F2FC2B4628
:1004C8000F49104D0DAA204602F0CBFE4FF47A7268
:1004D8000023384601F024FF0028F7D10022CDE997
:1004E8000057002309A9204600F0ECFDEEE700BF05
:1004F8001443000870400008784500088D4500083E
:10050800BB300008C1300008014B1B68184700BF0A
:100518000000002030B585B004460D4610220021A9
:10052800684603F0CCFC02238DF802302A46044BBF
:1005380001932146684602F05FFB05B030BD00BF5D
:100548001105000880B505460E461746984602F084
:100558005BF9034603F0D0FCDFF81890044649F82D
:100568000030424630463946A84754F8090000F0A2
:10057800DDF900BF08000000034A536823F00203B6
:1005880053600020704700BF002004E0084B1A6841
:1005980042F480721A601A6842F400721A601A688B
:1005A80042F480621A60034B034A1A60704700BF26
:1005B800003C0240180000200024F400014B0360B6
:1005C800002070476C43000808B5034B1B68984728
:1005D800BDE8084000F026B80400002030BFFFF74F
:1005E800FDBF00BF2DE9F0410B4EDFF8308006EB70
:1005F8000807CC1B054632460949204603F051FC42
:10060800A01942460021083C03F059FC2C6707F169
:100618000800BDE8F08100BF0000000004000000F1
:1006280014430008074A936893F90E10002907DB62
:10063800526993421FBF044A536843F08053536082
:10064800704700BF4404002000ED00E070B5264B61
:1006580015469A6A12F0100F9A6A14BF11241024D2
:1006680012F0080F9A6A18BF1224920706460AD594
:10067800586B9A6A140634D519B19A6A22F0800226
:100688009A62132401E06FF01500174B9A6A12F072
:10069800010F9A6A18BF142412F0200F9A6A18BF23
:1006A8001524D20602D49B6A9B070AD50E4B5B68B9
:1006B800190506D5314600F01BFA10B180F30988F8
:1006C8000224094B9A6A920642BF5A6A22F40052DF
:1006D8005A629A6A42F0FF029A6200232B702046FF
:1006E80070BD6FF01500CCE700ED00E0134B9A6A7F
:1006F80012F0007F9A6A14BF1E201D2012F0807F1E
:100708009A6A18BF1F2012F4002F9A6A18BF212076
:1007180012F4802F9A6A18BF222012F4003F9A6AB6
:1007280018BF232012F4803F9A6A6FEA02426FEAE8
:1007380012429A6218BF2420704700BF00ED00E003
:1007480010B5194B0246986A9C6A10F4805F14BF72
:100758001720162014F4006F9C6A18BF1820A405EF
:1007680009D5986B986A000404D51AB19A6A22F4DC
:1007780000429A6219200C4B9A6A12F4806F9A6AA6
:1007880018BF1A20D2050CD49B6A13F4005F18BF57
:100798001C20054A936A43F47F43936200230B703D
:1007A80010BD1B20F5E700BF00ED00E0F0B5484B99
:1007B8005B688BB00446C3F30803002585F31188F2
:1007C800BFF36F8F02F07F40B0F17F4F11D102F07D
:1007D8000C0008280DD010074CBF0C46012500223C
:1007E800033B8DF80720032B05D8DFE803F02463CB
:1007F80067602C46F3E700239DF80720CAB902AECC
:1008080004F1200720686168324603C20834BC42FC
:100818001646F7D1099A002D54D0C2F3080121B920
:100828006FEA52226FEA4222099202A9184602F0A0
:10083800BFFC0BB0F0BD264BDA6A9107DBD4DA6A4D
:10084800002AD8DBDA6A5200D5D55A69A16942F480
:1008580080725A61BFF34F8FBFF36F8F5A6931F8B7
:10086800021C22F480725A61BFF34F8FBFF36F8F5F
:100878004DF6027291420AD09A6AD2B24AB10DF18B
:10088800070201212046FFF7E1FE0346B4E723688B
:10089800B2E79A6A12F47F4F05D00DF107010120E3
:1008A800FFF74EFFF1E79B6AB3F5803FA3D3FFF74D
:1008B8001DFFEAE70DF107020021E3E70DF107014B
:1008C8000020EDE722F4FF7222F00102ACE700BF3E
:1008D80000ED00E0044B5A6942F010025A615A696F
:1008E80022F008025A61704700ED00E0EFF308803B
:1008F800EFF3098101B57246FFF758FF01BD00BF4C
:10090800102080F3118808484FF40461401880F3E0
:100918000988EFF314800221084380F31488BFF399
:100928006F8F00F0A5F8000080040020084B9B683A
:1009380083420BD1EFF3058343B1064B5A6842F06B
:1009480080525A605A6A22F400425A6203F007BA87
:100958004404002000ED00E0094A93686FF00A01A2
:100968009967084958674B6843F080534B600023E8
:1009780083F31188BFF36F8F9368986F704700BF38
:100988004404002000ED00E010B50446EFF31183A5
:10099800102383F31288BFF36F8F0A4B586998604E
:1009A800094B4FF000625A60084B026F1A60002230
:1009B800436F426783F31188BFF36F8F00F000F92C
:1009C800204610BD4404002000ED00E00002002095
:1009D8000B498A684FF030001044EFF3098C80E827
:1009E800F01F74467046FFF7CFFFA64604498A6891
:1009F80002F1300090E8F01F8CF30988704700007E
:100A0800440400201EF0040F0CBFEFF30880EFF33E
:100A18000980816911F8021C0229FFD001B502F092
:100A2800CDFB01BD40B2002807DB044A4109012380
:100A380000F01F00834042F82130704700E100E0D9
:100A480040B20028A8BF00F1604001F10101B8BF21
:100A5800064B4FEA0111ACBF00F5614000F00F00F2
:100A6800C9B2B4BF195480F80013704714ED00E000
:100A78000F4A08B50F4B22F07F029A60BFF34F8FE1
:100A8800BFF36F8FD3F8882022F47002C3F8882050
:100A9800EFF3148323F0040383F31488BFF36F8FF9
:100AA80001F0AAFA01F03CFF00F060F801F0F2FA58
:100AB8000000000800ED00E042F8203C009B42F8EE
:100AC8001C3C0A49019B42F8183C029B42F8143C22
:100AD80021F001014FF0807342F8043C42F8081CF1
:100AE8000023203A02654367704700BF4D050008A0
:100AF800094A0346906870B113F1160F006E05D0CD
:100B0800A0F140029A4205D8834203D2814228BF0D
:100B180000207047002070474404002008B515469F
:100B28000B4A0C4B9060026F1A600E4600F048F8B2
:100B38002C4686F309884FF00000074B984720465B
:100B48004FF000014FF000024FF00003034C204724
:100B58004404002000020020D53100084D0500089B
:100B6800014B10221A61704700ED00E00448002391
:100B78001021C2180133522B82F80013F9D17047A3
:100B880000E100E008B5EFF30583064A103B02EBED
:100B9800C30152F8330049688847BDE80840FFF7A9
:100BA80041BD00BF84400008024B034A03480121AD
:100BB80000F076B800000220000000206C43000816
:100BC800026E054B403A1A60044A4021C3E90112FB
:100BD8001846012100F06EB80402002000000B1531
:100BE800084AC2F898000B6823F01F03034343F038
:100BF8001003C2F89C308B6843F00103C2F8A030A0
:100C0800704700BF00ED00E02DE9F043DFF8608099
:100C180085B00E461F4604464FF00009B14523DA59
:100C28006068D8B13FB1411E08421BD11F2819D9AD
:100C38002368194216D12368019302F0DBFAA368EE
:100C480003430393D8F89050C5F30725D0B2013D6C
:100C5800A84207D801A9FFF7C3FF421C09F10109FF
:100C68000C34DBE76FF01502104605B0BDE8F083E1
:100C780000ED00E0044B0522C3F89420BFF34F8F2A
:100C8800BFF36F8F704700BF00ED00E0BFF35F8FC9
:100C9800024B0022C3F89420704700BF00ED00E02B
:100CA80010B5034C01232278FFF7AEFF207010BD6A
:100CB8007404002008B50B4A00231278FFF7A4FF3C
:100CC80010F1160F07D0084A0021D2F89030C3F36C
:100CD8000723984200DB08BDC2F89800C2F8A010AC
:100CE8000130F2E77404002000ED00E02DE9F04344
:100CF800534B544CD3F890302568C3F307239D42D7
:100D080085B000F29A80FFF7C1FF00200C268542CB
:100D18001AD14D4C4D4F25706846FFF74FFCDFF850
:100D28002081DFF82C9106460025AE4213D12378A6
:100D380043490020D1F89020C2F30722934276DB82
:100D4800FFF798FF002042E0616806FB0011FFF7FB
:100D580047FF0130DBE7009800EB05114FEA051C5F
:100D6800CB683B40B3F5000F48D00AD8B3F5001F55
:100D780030D0B3F5800F36D0B3F5801F10D00135D1
:100D8800D3E7B3F1807F42D0B3F1007FF7D150F8B9
:100D98000C3088684A6802F02DFA40F4802009E097
:100DA80050F80C3088684A6802F024FA40F08850FD
:100DB80040F43020CDE901230390D8F89030207812
:100DC800C3F30723013B98422AD96FF0150005B0F9
:100DD800BDE8F08350F80C3088684A6802F00AFAD7
:100DE80040EA0900E6E750F80C3088684A6802F0E3
:100DF80001FA40F0E06040F40030DBE750F80C30D6
:100E080088684A6802F0F6F940F08270D2E750F834
:100E18000C3088684A6802F0EDF940F08870C9E73C
:100E280001A9FFF7DDFE237801332370A7E7C1F896
:100E38009830C1F8A00001337CE74FF0FF30C6E7D7
:100E480000ED00E078430008740400200000F0FF83
:100E58000000081108B5024B1B689847002008BD20
:100E68001002002008B50649064821F00701C1F123
:100E7800005202F5003202F04EF9002008BD00BF12
:100E880087120020140200202DE9F041104E114F66
:100E9800054600244FF001082B7871691A19D2B25F
:100EA80008FA02F201EA02008A4309D153FA84F3EC
:100EB800706157F833201AB107EBC303596890479C
:100EC8006A780134E3B29A42E6D2BDE8F08100BF05
:100ED800003C014020020020044B18440023013349
:100EE800994200F8012BFADC704700BF240000206B
:100EF80007B5062201210020FFF7EEFF0022114668
:100F08000620FFF79DFD012108460722FFF7E4FFB1
:100F1800002211460720FFF793FD08220121022035
:100F2800FFF7DAFF002211460820FFF789FD0922A2
:100F380001210320FFF7D0FF002211460920FFF707
:100F48007FFD0A2201210420FFF7C6FF0022114677
:100F58000A20FFF775FD052108461722FFF7BCFF99
:100F6800002211461720FFF76BFD282206210A20D0
:100F7800FFF7B2FF002211462820FFF761FD074A5C
:100F880092E803006B4683E8030005488268194627
:100F98001268904703B05DF804FB00BF6443000883
:100FA800943F0008034660B1B0FA80F2C2F11F0214
:100FB800D2B205498856054A11680B431360FFF7FA
:100FC80031BDFF22F5E700BF24000020003C0140AE
:100FD800024A136823EA000313607047003C01408B
:100FE800032921D8DFE801F0020C10190F4B9A6889
:100FF80022EA00029A60DA6822EA0002DA607047A0
:101008000A4B9A680243F5E7084BDA680243DA604C
:101018009A6822EA00029A607047044B9A68024371
:101028009A60DA681043D860704700BF003C0140FE
:1010380030B5B0B1B0FA80F3C3F11F03DBB20B488F
:1010480050F833408C4204D100EBC3056D689542DB
:1010580005D044B940F8331000EBC30042600020CB
:1010680030BDFF23EBE76FF00F00F9E72002002007
:1010780060B1B0FA80F3C3F11F03DBB2044A002168
:1010880042F8331002EBC30251607047FF23F5E7C3
:101098002002002000F00302043292000F23934044
:1010A80043EA9000C3B20233054A52F82320030CE6
:1010B80002EA104093FAA3F3B3FA83F3D8407047D7
:1010C800003801402DE9F04389B08768DDF840C059
:1010D8000546914698460C4681B34E79D1F800E012
:1010E80016F0010F40F2FF7618BF6FF060463EEA37
:1010F800060623D1BCF1000F1AD103AE01226146C6
:10110800304602F095FD0F4B009301967F694A46E1
:10111800434621462846B84738B94FF0FF324FF0CA
:10112800FF33304601F0FCF8079809B0BDE8F083BA
:101138007C69A44609B0BDE8F04360476FF015002C
:10114800F3E700BF633200082DE9F04F0F4689B07E
:1011580091461E46D0F808A06A4BD0F808809A42FB
:1011680000F2CD80B8F83C40B8F83E3001341C4459
:10117800B8F840301C44002A00F0C180B6F57A7FE8
:1011880080F0BD80836807A99B6A9847002840F0D3
:10119800B3804EB95C4B994535D85C4B40F26B3601
:1011A800994588BF4FF44876079B029304FB09F4DE
:1011B800B3FBF4F4BAF838309C4238BF1C466FF0E1
:1011C800004304FB09FB0393B8F842309C421DDD41
:1011D8000398FB88BA885B08934228BF13463B8074
:1011E800BAF83020934204D9B8F83A209A4228BF76
:1011F8001A466FF0004398423A8008BF6FF08500A6
:1012080009B0BDE8F08F40F2EE26CDE7029BB3FBB4
:10121800FBF30193DDE901230BFB12335BBBBDF844
:1012280004200199B8F83C30B8F83EE005934FF433
:101238007A757143B1FBF5F1BAF83650BAF834C093
:101248000495511A89B20EEB0300A942BAF832305C
:1012580080B213D9B8F840508D4228BF0D46511EB0
:10126800491B89B288420BD2151A013DB8F84020B3
:10127800ADB2AA420FD20134CB44A5E7049DEEE7F4
:101288000CEB030080B288422DD9121A013A95B2AC
:10129800049AAA42EFD8B3EB500F4FEA500203D298
:1012A800059B934228BF1346C21A92B296451CD298
:1012B800A0EB0E039BB272464FF47A7100FB01104B
:1012C8000199B0FBF1F00399864234BF801B301AB4
:1012D8008142D0D97B80BA80FD803C8100283FF4D0
:1012E80078AF0390C7E70846D5E7944582BFA0EBDF
:1012F8000C039BB26246DFE76FF0040080E76FF0F3
:1013080015007DE740420F0000350C0020A10700C2
:1013180070B503680C4E43F001030360044600F007
:1013280027FD05466368DB0701D500200AE000F0C9
:101338001FFD401BB042F5D9236823F00103236049
:101348006FF00A0070BD00BF80A2190008B50A46F8
:10135800416805488368DB681C310BB1984708B1C0
:101368006FF0040008BD00BF943F0008F8B5076996
:10137800436807F110065D694FF0FF324FF0FF3305
:1013880030460C4602F029F93F792FB1304602F079
:1013980026F96FF00F00F8BD2389E9690E4A013B71
:1013A8000A40C3F3090313432288013A120602F0E4
:1013B80040721343A288013A120402F470221343C4
:1013C800E288013A120502F4E00213433046EB6169
:1013D80002F005F93846DEE700FC80FC2DE9F84FFD
:1013E8001F461B7AD0F81080012B04468A46914686
:1013F80000F2878044484FF0FF324FF0FF3308F186
:10140800100B02F0EAF84FF0FF324FF0FF33584666
:1014180002F0E3F86368397A2069D3E905329A4221
:1014280014BF0E23002311F0010149D0803000259C
:1014380050F8041FB1BB3C687E68E400F60044F035
:10144800040446F006065819D2F8003243F00103A6
:10145800C2F800323B7ADB0745D502EBC003C3F87C
:101468004042C3F84462D2F81C12012383400B4364
:10147800C2F81C32D2F8003223F00103C2F800325D
:101488003B7A13F0010F4FEA850317BF4344984492
:10149800C3F884A0C3F8D89004BFC8F830A0C8F82F
:1014A800849004E00135072DC2D16FF01B05584622
:1014B80002F095F8144802F092F82846BDE8F88F33
:1014C800483050F8044F54B97E683C6876010733B9
:1014D800640146F01806CD1D03EB6100B4E7013145
:1014E8000E29EED1E1E715F0010F00F1480108BF20
:1014F80002EBC10144EA064414BF42F831404C6093
:10150800B1E76FF08505D8E7980300202DE9F0438F
:1015180085B04568D0F810806E690024CDE9014493
:101528000746ADF80C404D4802F07BFB08F110006F
:1015380002F077FB0122214608F1240002F078FB33
:10154800286850B9464C204602F025FB50B96FF088
:101558001204204605B0BDE8F08302F01CFB002809
:10156800F0D1F4E7A36805F11C011B6820469847F1
:10157800814610B16FF00404EBE701466A46A86A99
:1015880002F0F5FA041EE4DB009B4A461979186854
:1015980000F0A0FA041EDCDB3046FFF7B9FE044673
:1015A8000028D6D13368DFF8BC9023F002033360FB
:1015B80000F0DEFB0446736813F0020346D1D5E958
:1015C8000512914218BF0E23D2F8001241F0010112
:1015D800C2F80012A9697F22D1F80C0202FA03F3BB
:1015E8000343C1F80C32AA69D2F8003223F0010390
:1015F800C2F80032336823F0FC033360336843F0E9
:1016080040033360EA682B8A01A93846FFF79CFD3E
:101618001630AFD001A9384601F041FE0446002833
:1016280097D10146384602F0BAF80446002890D10E
:10163800024608F1F401384601F071FE6B6A304643
:101648009847736943F00103736182E700F090FBE8
:10165800001B4845AFD96FF00A047AE798030020C9
:10166800943F000880A2190022292DE9F0410D4677
:1016780000F284800769D0F804804148D8F81840FF
:101688004FF0FF324FF0FF3307F1100601F0A5FFCE
:101698004FF0FF324FF0FF33304601F09EFFD8E99C
:1016A8000532934214BF0E230023062D4FEA85020C
:1016B8001EDC3A440021C2F88410C2F8D810D4F8CD
:1016C80000222B4442F00102C4F8002204EBC302BA
:1016D800C2F840124FF0FF31C2F84412D4F81C226D
:1016E800012101FA03F322EA0303C4F81C321DE0C6
:1016F800073D3A440733002103EB650315F0010F5A
:101708001163C2F8841003F148011DD0D4F8000217
:10171800D26A40F0010004EBC101C4F80002B2FA39
:1017280082F2184848605209002AD7D1D4F800320A
:1017380023F001033046C4F8003201F050FFBDE841
:10174800F0410F4801F04BBF0C2D0DDCD4F800021E
:10175800526B40F00100C4F80002B2FA82F2094864
:1017680044F831005209DFE7D4F8002242F00102C0
:10177800C4F80022034A44F83120AFE7BDE8F081FD
:10178800980300200000FFFF2DE9F047056946682F
:1017980005F110074FF0FF334FF0FF323846D6F807
:1017A800148001F01AFF2B797BBB306890B9D8F808
:1017B8000030DFF85CA023F00103C8F8003000F027
:1017C800D7FA8146D8F8044014F001040FD1012358
:1017D8002B7106E0836829681B689847044600282F
:1017E800E5D0384601F0FBFE2046BDE8F08700F062
:1017F800BFFAA0EB09005045E4D9306810B18368FE
:101808005B6898476FF00404EBE76FF07704E8E74C
:1018180080A2190010B51C4B18680B68302B1446B1
:101828000BD00DD85A1E042A11D8023B032B04D81A
:10183800DFE803F00226141D00202060002010BD00
:10184800402B1BD006D8342BF7D0382BF5D06FF0AF
:101858008500F4E7442B08D0A82BF7E700F0A4F89C
:101868000623B0FBF3F0A82358434008E5E700F04F
:101878009BF80623B0FBF3F0A82358438008DCE765
:101888004FF4FA40D9E700BF18000020F8B5424FDE
:10189800424C00F09FF8384602F031F800F07CFA2C
:1018A800A3683F4AC3F303131578D35C47FA05F5D9
:1018B80020FA03F6AE4202D2284600F09BFA2368CB
:1018C80023F480232360236843F480332360334B5D
:1018D8001A689203FCD55A6F42F001025A675A6F90
:1018E8009407FCD59A6802F00C02082A17D11A68E6
:1018F800900707D41A6842F001021A60274A136851
:101908009907FCD5254B9A6822F003029A609A68D9
:1019180012F00C0FFBD19A6822F0F0029A601F4C6B
:10192800236823F080732360636823F44033636083
:10193800636823F0706343F08063636000F038F8F5
:10194800236843F08073236023689B01FCD5A36858
:1019580023F0F003A360A36823F0030343F002031A
:10196800A3600E4CA36803F00C03082BFAD1AE4217
:1019780002D3284600F03EFA0A4B1F60A36823F4FE
:10198800E05343F4A053A360A36823F4604343F4F3
:101998000043A3600020F8BD007A030A0038024023
:1019A800874600081800002000487047001BB70051
:1019B800054B06495A681140054A0A435A605A6855
:1019C80022F440325A607047003802400080BFFF5E
:1019D800062A4000064B1A6C42F080521A641B6CAF
:1019E80082B003F080530193019B02B0704700BF9F
:1019F800003802402DE9F843D0F80480D0F8109060
:101A0800D8F8080017460D461E4601F008FCB7F541
:101A1800001F044616D12846D8F80840FFF73AFBBD
:101A280084420CD1294601F0FAFB0446FFF7D0FAAC
:101A38002046FFF71DFB00212046FFF7D1FA0020C2
:101A4800BDE8F883B7F5800F20D0B6F1806F19D0C4
:101A5800B6F1C06F18D0B6F1007F1AD1022610492E
:101A68004A462046FFF7E4FAB0B9D8F808102846E5
:101A780001F0D8FB20463146FFF7B2FA2046FFF7BF
:101A880091FADCE70126EAE70326E8E76FF085002C
:101A9800D6E76FF01500D3E76FF00F00D0E700BF6F
:101AA8001B3B000838B5036904465860084D2846B2
:101AB80002F071F840B16168AB680C311B682846C8
:101AC800984700EAE07038BD6FF01200FBE700BFEE
:101AD800943F00082DE9F0471E4F044600EBC1066D
:101AE8000025B44201D1002014E02068C30600F0AC
:101AF8001F0911D4656845F02005C0F3481AC0F3E2
:101B080044200F2823D857F82080B8F1000F0DD1B2
:101B18006FF01200BDE8F087B9F1100F04D0B9F1E9
:101B2800110FEAD16568E8E73025E6E7404602F09C
:101B380032F80028ECD04B462A460AF00F014046FE
:101B480001F0FDFF002804F10804CADAE2E76FF0AB
:101B58001500DFE72045000810B54FF0E0230F49D6
:101B68009C691A6908689B690D4902F4803234B986
:101B780093B903464AB90A681044C01A10BD002B2D
:101B880008BF03460AB9A342F5D90A6802440A60A5
:101B98004FF0E0221269EEE70446F3E74004002024
:101BA8003C0400200A4B102283F82320094B44F2FE
:101BB800A0121A60084B002018604FF0E02344F28E
:101BC8009F125A6198611A6942F007021A617047B8
:101BD80000ED00E0400400203C040020684620F0AE
:101BE80007018D4619B5FFF7B7FF114B1149D3E926
:101BF80000420868001942F10002C3E900020E4AD7
:101C080000230B60D2E9004144F2A013001BB0FB93
:101C1800F3F043431B1941F10001C2E9003100F020
:101C280065FFFEF7FFFCBDE819408546704700BF19
:101C3800580000203C040020500000202DE9F0410D
:101C4800DFF8DC8099B1421C0BD14FF0E022136918
:101C580023F0010313614FF07F43C8F80030BDE85B
:101C6800F081D8F80060012807DC00270BE0431C4E
:101C7800D8F80060F7D140F2E53040F2E6339842F8
:101C8800A8BF1846471EEFF31185102383F3128867
:101C9800BFF36F8FFFF760FF224C4FF0E023996985
:101CA800D4E90023801843F10003C4E900031E4B64
:101CB80000221A601D4B1A68831A2ED444F2A01C05
:101CC8000CFB073303F583431F33B3FBFCF7131AED
:101CD8000CFB073340F21A42934238BF1346144AAA
:101CE800934228BF13464FF0E022C8F80030013B6A
:101CF80090695361002393618142A1EB0003D4E909
:101D0800001238BF9B195B1842F10002C4E9003287
:101D180085F31188BFF36F8FA1E740F21A43E2E71A
:101D280040040020580000203C04002050000020FF
:101D38002094FF0038B5EFF31185102383F3128840
:101D4800BFF36F8F084B1C68084B1B68E41AFFF73A
:101D580003FF85F31188BFF36F8F44F2A01320446B
:101D6800B0FBF3F038BD00BF580000205000002041
:101D780038B5EFF31185102383F31288BFF36F8F03
:101D8800044B1C68FFF7E8FE85F31188BFF36F8FDB
:101D9800204438BD5800002008B513498B6803F06B
:101DA8000C03042B1CD0082B1CD14A684B684968CB
:101DB80013F4800314BF0D480D48C1F3881118BFF0
:101DC800002302F03F02A1FB0001FEF7D9F9064B00
:101DD8005B68C3F3014301335B00B0FBF3F008BD5C
:101DE8000248FCE70248FAE700380240001BB70047
:101DF8000024F40000285ED0304A136813F48043AE
:101E080038D02F4B984215D913685B0449D5052360
:101E18002C490A6822F007021A430A600A6802F08D
:101E2800070293421CBF0A6802F00702981A18BFFB
:101E380001207047244B984204D91368580436D5BA
:101E48000423E5E7214B984204D91368590430D597
:101E58000323DDE71E4B984207D81E4B98421368B0
:101E68001DD95A041FD50123D2E713685B041CD57A
:101E78000223CDE7126812F48042C9D11249884280
:101E880015D81249884214D811498842F0D8114906
:101E98008842BDD9012A134638BF0123B8E7002379
:101EA800B6E70522F6E70122F4E70222F2E7042268
:101EB800F0E70322EEE70120704700BF0070004002
:101EC80080D1F008003C0240000E2707804A5D05DB
:101ED8000087930380C3C90138B5EFF31185102338
:101EE80083F31288BFF36F8F064B9C6801F066FE80
:101EF80085F31188BFF36F8F2046BDE83840FEF7A1
:101F080015BD00BF4404002038B5094B53F82040E4
:101F1800013053F82050A54200D838BD636823B17A
:101F2800204601F04EFE0834F5E723689847FAE7A3
:101F38006045000870B52B4B2B4C2C4D012286B008
:101F480003201A70FFF7E0FF00F038FE01F055FE9D
:101F58000420FFF7D9FF2646AE4204F1300410D31F
:101F680000F016FC204C224EAC4226D300F024FC94
:101F7800FEF770FA1F4A137B23F00103137306B0B0
:101F880070BD54F80C3C059354F8103C049354F875
:101F9800143C039354F8183C029354F81C3C0193E6
:101FA80054F8203C009354E90A2354E90C0100F04A
:101FB800DDF954F8303C5E65CDE7D4E90A23B3F186
:101FC800FF3F08BFB2F1FF3F05D052EA0301206886
:101FD80003D101F039FE3034C6E73146183000F03D
:101FE8000BFDF8E7750400201443000814430008AB
:101FF800293D0008E00000200648074A08B5121AE3
:10200800002101F0F6FD0548054A0021121A01F0E9
:10201800F0FD08BD500000207804002000000010EA
:102028000000001070B5002386B00122CDE904231A
:10203800134E144D01930F22CDE902321249142395
:1020480003FB005506EBC01604464FF4C07000FBB6
:1020580004110E4B00954FF4A072304600F086F93B
:10206800737B0B4AEE6023F0040373734FF404632D
:1020780004FB033313442C746B6006B070BD00BFBF
:102088006000002044040020C00C0020053C00082B
:1020980080040020BFB50020FFF736FF2C4B83F3E8
:1020A80008882C4D2C4E6B692C4F43F400736B61E0
:1020B8000024F02385F82230EC772C766C76AC7609
:1020C80085F820406B6A43F4E0236B62FEF702FC5C
:1020D800FEF746FD4FF0FF33AB62EB62FEF706FEFC
:1020E800FEF762FD1E4BB36040F201129A81C3E90C
:1020F8001844DC6601F04EFDFEF748FA0120FFF7B0
:1021080003FF0220174DFFF7FFFE00F075FB164B8B
:1021180075610593012315490094CDE903434FF4F4
:1021280080623B46CDE90144284600F01FF96A7BEE
:10213800064622F0040228466A7301F0C1FD2046D3
:10214800FFF770FF3A4631462846FEF7E7FC00BF26
:10215800C00C002000ED00E0440400203D1F0008F2
:1021680060010020E000002097460008400E002093
:102178002DE9F341044617461E46EFF31188102354
:1021880083F31288BFF36F8FC368334A7BB18068CB
:102198009168884219D057EA060318D188F3118844
:1021A800BFF36F8F6FF00F0002B0BDE8F081916848
:1021B80091F90E1021610133E3609368A36088F3FD
:1021C8001188BFF36F8F0020EEE72169F2E791F9DC
:1021D8000E1090F90E309942A8BF19466FF07E0292
:1021E8009142B8BF11468B422DDD01F012FD054624
:1021F800CDE9007619482246414600F015FA002834
:10220800E1D0EFF31186102383F31288BFF36F8FA9
:10221800A068D0B1236821699C420AD04BB193F9D8
:102228000E309942A8BF19466FF07E039942B8BF95
:10223800194601F0EEFC40B10848314600F064FA56
:102248006FF00A00B0E70025D2E7002DF4D186F33D
:102258001188BFF36F8FF3E7440400207604002051
:1022680038B58368044663B3194A926893422BD100
:10227800C368012B03D9013BC360002038BDEFF3CD
:102288001185102383F31288BFF36F8F016980686B
:1022980001F0BFFC204601F047FDA06058B190F95D
:1022A8000E2022610022826701F00AFD09482946B2
:1022B80000F02AFAE1E7E06085F31188BFF36F8F39
:1022C800DBE76FF01500D9E74FF0FF30D6E700BF26
:1022D800440400207604002038B50446EFF3118545
:1022E800102383F31288BFF36F8F01F01DFD48B1EF
:1022F8000022826701F0E4FC29460848BDE838401E
:1023080000F002BAD4E902329A4218BF0133A3603E
:1023180085F31188BFF36F8F38BD00BF76040020A6
:1023280013B5EFF31181102484F31288BFF36F8F74
:10233800846844B1013C846081F31188BFF36F8FD6
:10234800002002B010BD52EA030406D181F31188BF
:10235800BFF36F8F6FF00F00F3E7CDE9002302465C
:10236800014800F061F9ECE7760400202DE9F0431C
:10237800073285B022F007020E461F4610990173F6
:1023880000F158037F32C0E916330446002322F0D7
:102398003F020421836041733F2A0F98A073C4E968
:1023A8000633E37306F14009A2F1400805D883F328
:1023B8001188BFF36F8F084602DFB51829462046FB
:1023C800FEF710F907300E9B20F00700A066C4E95D
:1023D800189802930D9B01932D1A0C9B00932A4683
:1023E8003B4631462046FEF767FB00236365044BF6
:1023F8009B6803B1DB6EE366284605B0BDE8F08351
:102408004404002038B50D4D2B4653F8184F9C4214
:1024180000D004B9EC68AB6838B95A7BD20604D14D
:10242800A26912B9DA897F2A05D89C4202D02046CF
:1024380000F01EFA23466B6138BD00BF440400203B
:1024480008B590F90D20437B002A014604DA03F011
:102458007F03437301F0FAFB044B9868431A584210
:102468005841BDE80840FFF7CDBF00BF4404002035
:1024780070B490F90D30427B002B29DBD30627D1AD
:1024880083692BBB134962F07F0242730A4652F8F4
:10249800184F944218BF2346CC6923B9C0E90024D9
:1024A8002060C8610CE090F90E5093F90E60B542B7
:1024B8000AD0AE4208DD5A68C0E9003210605860A0
:1024C80070BC0020FFF79EBF9C42E7D01B68E4E782
:1024D80070BC7047440400202DE9F041002A427B7B
:1024E8000E460CBF10210821114204460FD141EAC3
:1024F8000203D20918D1437308291BD00120FFF722
:1025080081FFBFF35F8F637B23F060036373274B07
:102518009B68A34243D1EFF30583002B3FD130469C
:10252800BDE8F041FEF718BA03F07F03437301F0EA
:102538008DFBE1E7A36813B1204601F08FFB04F19E
:10254800180001F02EFCA56D04F15807AF4211D018
:102558004FF0000875B1284601F080FB05F118001E
:1025680001F01FFCC5F878802846FFF781FFA56DAC
:10257800AF42EFD10D4DAB689C42BFD1EFF305835D
:10258800002BBBD00120FFF73DFF094BAB6040F2A9
:1025980001129A810022C3E91822DA66B1E786F3AC
:1025A8001188BFF36F8FBDE8F08100BF440400209D
:1025B8006001002070B590F90D20437B002A014688
:1025C80004DA03F07F03437301F040FB4B7B154AA9
:1025D80063F07F0310464B7350F8183FD469834269
:1025E80008BF002323B9C1E900042160D1610CE0D0
:1025F80091F90E5093F90E60B5420ED0AE420CDD43
:102608005868C1E90030016059609068431A58421F
:10261800BDE870405841FFF7F5BE9C42E3D01B6807
:10262800E0E700BF44040020F8B5124B0C46114601
:10263800114A98681060DDE90676EFF311821022DE
:1026480082F31288BFF36F8F9D68284601F010FB54
:10265800B6F1FF3F08BFB7F1FF3F06D007493A463A
:10266800334605F1180000F0C7F92046BDE8F840E8
:10267800FEF772B94404002064040020293D0008D4
:10268800F8B50446EFF31186102383F31288BFF3DD
:102698006F8F437BDA0649B219D18569BDB903F05A
:1026A8007F03437301F0D2FA437B164A817363F0C8
:1026B8007F034373134653F8180F984218BF054613
:1026C800D0695DB9C4E900300460D46111E0A17338
:1026D800002086F31188BFF36F8FF8BD95F90E704F
:1026E800B9420BD08F4209DD6B68C4E900531C6006
:1026F8006C600120FFF786FE0120EAE7A842E1D0DE
:102708002D68DEE74404002049B9EFF3058030B9AD
:10271800054B5A699B689A4201D0FEF71DB981F3AF
:102728001188BFF36F8F70474404002010B5EFF392
:102738001184102282F31288BFF36F8F427B5107F6
:1027480004D484F31188BFF36F8F10BD22F0040204
:102758004273FFF78DFE21460248BDE81040FFF79F
:10276800D3BF00BF76040020034648B9EFF30582C3
:1027780032B9064A51699268914201D0FEF7ECB825
:1027880083F31188BFF36F8F704700BF44040020A4
:10279800EFF31181102383F31288BFF36F8F054B7A
:1027A8009A68D37B013BD37381F31188BFF36F8F92
:1027B800704700BF4404002038B5EFF3118510249A
:1027C80084F31288BFF36F8F0A4B9A68D37B013367
:1027D800D3730020FFF716FE85F31188BFF36F8FC0
:1027E800EFF3118084F31288BFF36F8FBDE8384090
:1027F800FFF7BABF44040020024B03F11802C3E9F3
:102808000622704744040020014B9868704700BFB7
:1028180044040020044BC01A044BC0105843044B16
:1028280001221A54704700BFE0010020ABAAAAAAEF
:1028380076040020C3897F2B12D80A4B1B6863B12A
:10284800094B90F90E201B689A4209DB437BDB0693
:1028580006D1064BC31A18BF012303F001007047C5
:102868000023FAE76C0400206804002060000020C0
:1028780070B50E4B0E4C1E7C06EB460304EBC304EE
:102888000546204601F08DFA0A4B002228469A5543
:10289800FFF7D0FF48B1084B08491A68013A2046AB
:1028A800D317BDE8704000F0A7B870BD44040020FD
:1028B800E0010020760400206C0400201D28000898
:1028C80038B5EFF31185102383F31288BFF36F8FA8
:1028D800104B114A9C681068A04206D1FFF7C8FF48
:1028E80085F31188BFF36F8F38BD00211B7C116001
:1028F8000A4AD35C002BF3D02046FFF79BFF002841
:10290800EED0637BDB0602D12046FFF753FE20465C
:10291800E4E700BF4404002064040020760400209B
:1029280009480A4A0A4908B5121A01F064F9094A1D
:1029380009490A4801F05FF909480A4A0A49BDE805
:102948000840121A01F057B9000000204C0000207E
:10295800E846000800000000E846000800000020E3
:10296800000000100000001034470008034B1B68EB
:102978000BB9FFF7DFB90020704700BF70040020D3
:1029880030B570B10B4B5B6898420AD0036843B10D
:10299800D3E90421D0E90445121941EB0501C3E943
:1029A8000421D0E9003213605A600023C0E90033E3
:1029B80030BD00BF1C00002010B50E4B1C689C42A7
:1029C80004D1FFF7D3FF6FF0004010BDFFF7CEFF33
:1029D800002CF8D0D4E904321B1A62EBE072B3F190
:1029E800004F72F10001EEDA002AACBF1846002051
:1029F800EBE700BF1C000020B3F1FF3F08BFB2F1B6
:102A0800FF3FF8B504461D4616465ED08160EFF3D9
:102A18001187102383F31288BFF36F8F013275F18A
:102A2800FF3324DA2E49D1E900206FF001039B1A05
:102A38004FF0FF3262EB00009E1B60EB0500012E99
:102A480070F1000301DA01260020C4E90460254E74
:102A5800D6F800C07568B44508BF4FF0000CBCF14B
:102A6800000F0DD1C4E900652C6074601CE0FFF70D
:102A78007DFF013645F10005361845EBE070E4E7C7
:102A8800DCE90420D4E90431934271EB000E1DDA2D
:102A9800D21ADCF8043060EB0100CCE90420C4E968
:102AA80000C31C60CCF804403368B34209D09C4290
:102AB80007D10D4B1C6824B9FFF77EFF2146FFF7AD
:102AC800BDF887F31188BFF36F8FF8BD9B1A61EBD0
:102AD8000001AC45C4E90431C4D0DCF800C0BEE74D
:102AE800F80100201C000020700400202DE9F84F98
:102AF800EFF3118C102383F31288BFF36F8FDFF885
:102B0800B0A0DFF8B0902C4FC9F80000DAF8000048
:102B18000024504508BF00200025D7E90021D9F836
:102B28000030E04678B3D0E9046C4FEAE37EB34264
:102B38007EEB0C0B05DAF61A6CEB0E04C0E90464A4
:102B480021E0B21841EBE671C0E90445C7E900216C
:102B5800FFF716FF88F31188BFF36F8F83689847D4
:102B6800EFF31188102383F31288BFF36F8FD9F81E
:102B78000030DAF800009B1B5045C446C9F8003005
:102B8800CBD1D7E900219A1841EBE3730024C7E9B8
:102B98000023C9F80040FFF70FFF2146FFF74EF862
:102BA80088F31188BFF36F8FBDE8F84FFFF788BE31
:102BB8001C00002070040020F8010020014800F0EB
:102BC800E9BA00BF9C46000838B5064C064DAC4231
:102BD80001D3002038BDD4E90112204601F0F6F8EF
:102BE8001434F4E74C0000204C000020014B196815
:102BF80001F06DB9984300082DE9F04F8DB0436896
:102C08000293837815469A07804640F10D81002487
:102C18000E78002E00F00A81252E0BD04B1C039352
:102C28000134029B4146304698470028C0F2F6809E
:102C38000399EDE74E788B1C252E0393F0D00027DF
:102C4800B946BB46BBF11F0F38D8A6F12003102B9D
:102C58000AD8DFE803F02A09093009090921090916
:102C68000928092D09091F00A6F13003092B33D9BA
:102C78002A2E37D11BF0400F55F8043B40F08280D4
:102C8800002BA7BF4BF0200B9946C3F100094BF06E
:102C9800280B01E04BF0010B039B13F8016B039326
:102CA800002ECFD130E04BF0020B4BF0040BF3E7D2
:102CB8004BF0080BF0E74BF0100BEDE7BBF17F0F83
:102CC80019D8A6F13003092BD2D81BF0400F03D036
:102CD8000A2101FB0737DFE70A2101FB09394BF01D
:102CE800200BD9E72E2E06D11BF0400F40F09E8016
:102CF8004BF0400BD0E76C2E31D02BD8682E36D055
:102D08006A2E3CD04C2E3AD0002F46F02003B8BF94
:102D18002BF04002A3F16501BCBF1FFA82FB00271C
:102D2800022901D9612B2FD1073525F00705DFF8D6
:102D3800ACA2083507271BF0080F66D00AEB070B73
:102D480056465E4563D1A4EB0A0A06EB0A02A9EBD4
:102D580007096FE1742E9FD07A2E9DD0D4E71BF01F
:102D6800800F18BF4BF4007B4BF0800B94E71BF4EB
:102D7800807F18BF4BF4007B4BF4807B8CE74BF4CF
:102D8800207B89E71F4687E7A6F16301122900F235
:102D9800F080DFE811F013004F00EE00EE00EE00C7
:102DA800EE004F00EE00EE00EE00EE00EE00FE003A
:102DB800E900EE00EE001B00EE00AF0055F8043B02
:102DC8008DF8183001270DF1180AB4E755F804AB4F
:102DD800834BBAF1000F08BF9A461BF0400F14BF8F
:102DE80039464FF0FF31504600F0F8FF0746A2E79A
:102DF800029B41462020984700280FDB013EB7423E
:102E0800F6D34C44A41BB14698E74E46F7E716F8AC
:102E1800010B029B41469847002892DA98F8023045
:102E280043F0040388F802304FF0FF3420460DB019
:102E3800BDE8F08F1BF0800F34D01BF4007F2CD03E
:102E4800073525F00705AA4669685AF8080B2BF0DC
:102E580010050029ADB237DA404261EB410145F473
:102E680080650DF1180B0A235A4600F0C3FFA0EB4A
:102E78000B0301936B0662D5019B25F001019F426C
:102E880089B240F3A180002E00F0998015F010025D
:102E980040F09C80BB460D4623E0AA465AF8040B36
:102EA800C117D4E7AA461BF4807F5AF8041B01D146
:102EB8000846F5E71BF4007F15BF48B208B241F396
:102EC800C01141F3C031C2E750EA0103C9D11BF078
:102ED800400FC6D0002FC4D12BF0110295B2BB46CB
:102EE800019740F2064115EA01021CBF0BF1010BE4
:102EF80000222CE02BF010021FFA82FB0A231BF0A1
:102F0800800C49D01BF400711DBF073525F007055B
:102F1800AA46AA461ABF5AF8080B69685AF8040B59
:102F280050EA010545D12BF016051BF0400FADB254
:102F380042D0002F40D12BF0170295B2019715F01F
:102F4800100248D0019B002E42D103F1010B290742
:102F58005AD4EB0706D5D9456FDD0199A9EB0B03C8
:102F68005F18CB465B4649E04BF0100B10237826E0
:102F7800C5E7782B04D1C6F1780343F01003BEE708
:102F8800029B4146252098470028FFF647AF0234A8
:102F980047E608230026B2E7AA461BF480715AF8D0
:102FA800040BBDD01BF400711ABFC0B2614680B2D9
:102FB800B6E72BF0060295B20DF1180B54E725F091
:102FC8001105ADB2BB468CE70D46B8E73B460D464A
:102FD80003F1020BBBE7DDF804B082E7DE46000828
:102FE800D7460008CDE904324146029B2020984785
:102FF8000028FFF613AF049B059A01339945F1DCCD
:10300800A4EB0B01CC189B460AB3029B4146302027
:1030180098470028FFF602AF8EB901342744019B78
:10302800391B994224DC1D465DBB019AA9EB0B09AB
:10303800224455461446914435E0019F92E70234F4
:1030480041463046029B98470028E7DAE6E640F218
:1030580006410D42E2D015F0020F14BF2B202020AC
:1030680015F4806F04F10104414618BF2D20E9E7EB
:10307800029B414630209847002804F10104CEDA2B
:10308800CCE606AB013D4146585D029B98470028B7
:10309800CADAC3E6029B414620209847002804F17B
:1030A8000104FFF6BBAEA9EB0403002BF2DCBFE57D
:1030B80070473120FFF79ABD1046FFF70DB900EBB6
:1030C800C100408840087047F8B50346FFF7F7FF8E
:1030D800B0FA80F0C0F11F0003EB800CCA00DCF8E6
:1030E8001060171D0C4606328DB256B9012101FA3F
:1030F80000F0D9680143D960CCF81040DD539D52E7
:10310800F8BDF1000431585AD85303EBC0009E5261
:10311800C5805D52F4E7043A2DE9F041CC1D114415
:1031280024F0070421F007010E1BF708B7FA87F20D
:10313800C2F12405AD004FF000080735C2F12002A6
:10314800ED0804604146A760C4F80C80920004F1C1
:10315800100000F0B4FE6B0043F00103638004EB41
:10316800C5027B1B5900A4F800805180A21924F8DD
:103178003550A2F80280A35304EBC70329465A88A6
:1031880042F001025A802046BDE8F041FFF79CBF9B
:10319800002070470FB407B504A951F8040B01913A
:1031A800FDF7B8F903B05DF804EB04B07047704759
:1031B800012801D1EFF30583FEF78EBE01460068B2
:1031C800FFF7F6BF00210120FFF7F2BF61B662B634
:1031D80080F31188BFF36F8F704772B6002383F3B3
:1031E8001188BFF36F8FBFF34F8F30BF62B6BFF345
:1031F8006F8F7047202809D9B0F1004F08D80138DF
:10320800B0FA80F0C0F11F004000704708207047F6
:103218003E20704708B5FDF71DFE002008BD0120BF
:103228008840704700F00302043292000F23934055
:1032380043EA900010B5C3B29B0003F1804303F545
:103248009C33020C9C6892FAA2F2B2FA82F224EA47
:10325800104091400143996010BD10461161FFF77D
:103268003BB8F0B48668B1B1ABB11D7A1F6815F0F0
:10327800010F40F2FF7518BF6FF060456FEA050C4B
:1032880037EA050507D15C681CEA040F03D1B46965
:10329800A446F0BC60476FF01500F0BC7047F0B46E
:1032A800D0F808C082680C88158E8368A54228D893
:1032B8005D8FA54225D34D88568EAE4221D89E8F6C
:1032C800AE421ED38E88958EB5421AD8DD8FB54290
:1032D80017D3CD88D78EAF4213D8B3F84070AF421A
:1032E8000FD30F89128FBA420BD8B3F84230BB42C2
:1032F80007D3B44205D8AC4203D8F0BCDCF8103090
:1033080018476FF08500F0BC704710B50C461146A1
:1033180023681BB1626898470023236010BD436887
:103328005B6921B10069007950B9042008702AB19D
:103338009969090C11709B691B0E53700020704726
:103348009869400701D50320F0E79869800701D5FF
:103358000220EBE7986910F0010018BF0120E5E7AB
:103368000B230B600020704700290CBF0E2007209C
:10337800704710B5436804695B69C4E902125A6969
:1033880019B922F4E0625A6110BD42F4E062FAE72A
:10339800002210B5114604461420FDF751FB1420F5
:1033A800FDF740FB002211461320FDF749FB1320CF
:1033B800FDF738FB002211461620FDF741FB1620C9
:1033C800FDF730FB636943F4044343F0130363617F
:1033D80010BD2DE9F0434368D0F810805C6985B0D2
:1033E80006460027E3689B0703D1E36805B0BDE8FC
:1033F800F083102200216846D4F8B45100F05FFD34
:10340800D4F8B03113F0040FD4F8B0311BBFDB0887
:1034180000935B0D012314BF8DF805300093D4F899
:10342800B0319A074DBF9DF80530D4F8B8310293F2
:1034380043F0020356BFD4F8BC318DF8053003932E
:10344800D4F8B431C5F3072503F00F03062D8DF822
:1034580004300FD808EB8505D5F88470D5F8D890D6
:103468001FB14A4669463046B847E36843F020032F
:10347800E360B7E7222D9EBF08EB85052F6BD5F8D3
:103488008490EDE7F8B5436807695C69A569A368A6
:1034980005F0040503F001032B43064617D0A36883
:1034A800980758D4A368190757D4A3685B0757D45B
:1034B800002D0CBF6FF004026FF07102A36843F097
:1034C8000103A36007F134013046FFF71EFFA3682C
:1034D80003F480732B4317D0A368980543D4A368DB
:1034E800190542D4A3685B0542D4002D0CBF6FF0C8
:1034F80004026FF07102A36843F48073A36007F1BC
:103508003C013046FFF701FFA36803F480332B43E7
:1035180017D0A36898032ED4A36819032DD4A368E1
:103528005B032DD4002D0CBF6FF004026FF0710205
:10353800A36843F48033A36007F144013046FFF7E2
:10354800E4FEA36813F0E05F1DD007F12400BDE896
:10355800F840FEF7C1BE0022B0E76FF00402ADE705
:103568006FF00F02AAE70022C5E76FF00402C2E776
:103578006FF00F02BFE70022DAE76FF00402D7E727
:103588006FF00F02D4E7F8BDFFF77CBF2DE9F341D8
:1035980043685E6973685B0704461BD5FFF772FFD3
:1035A80025690DF1030101AA2046D5E90278FFF744
:1035B800B6FE9DF8031095F8F4308B4206D085F8D6
:1035C800F4101FB1019A43462046B847736843F088
:1035D8000403736002B0BDE8F081FEF7C9BDFEF7D1
:1035E8003FBE2DE9F8430669D0F8049006F11008AB
:1035F8004FF0FF3305464FF0FF324046D9F81470BC
:10360800FFF7EBFF33797BB33846FDF781FE041EE5
:103618002DDB6FF0720206F134012846FFF775FEC4
:103628006FF0720206F13C012846FFF76EFE28464D
:103638006FF0720206F14401FFF767FEBB6843F0C2
:10364800801343F40043BB60D9F8000020B18368BD
:103658005B689847044608B9002333714046FFF772
:10366800BEFF2046BDE8F8836FF07704F6E76FF0F9
:103678000404F3E72DE9F84F98464368DDF828A0DD
:10368800D3F814900B790469082B0D46174674D8A3
:103698004B79032B74D82379002B74D0D9F81830C0
:1036A8005E0773D404F110064FF0FF334FF0FF327A
:1036B8003046FFF792FFD9F8083004F1240B13F0D5
:1036C800E05F36D058014BD509F5C07334340B9AF6
:1036D800C4F800A062601A6802F001021A606A79F0
:1036E800296812F0010F1A6816BF42EAC10242EABD
:1036F800415242F004021A606A7992074FBF1A6871
:10370800AA689A60EA6852BFDA6042F002021A6058
:1037180059682A7921F00F0102F00F020A435A6012
:103728001A6842F0010230461A60FFF758FF00207D
:103738000AE03046FFF753FF3A4643465846FEF73D
:10374800EFFD18B16FF00A00BDE8F88F4FF0FF33B6
:103758004FF0FF323046FFF740FFD9F80830AEE7A8
:10376800190103D509F5C8733C34B0E713F0805349
:103778000FD009F5D0734434A9E76FF01500E3E7DB
:103788006FF08500E0E76FF07200DDE76FF0710021
:10379800DAE7C3F800A00B9A5A601B68FFDEF8B599
:1037A800436806695C6931F00B030D4628D133790B
:1037B8004BBB06F110074FF0FF3238464FF0FF338E
:1037C800FFF70BFFE369E8074CBF43F0804323F0A2
:1037D8008043E361E369A9074CBF43F0004323F04A
:1037E8000043E36123682A074CBF43F0100323F02A
:1037F8001003236038463560FFF7F1FE0020F8BD5E
:103808006FF08500FBE76FF00F00F8E70B68A3F196
:103818003002782A82B012D803F1804303F50E33C0
:1038280048681A6802431A600B6803F1804303F57D
:103838000E3300201B680193019B02B070476FF0A4
:103848008500FAE70B68A3F13002782A9FBF03F1DD
:10385800804303F50E3349681A689DBF8A430020E8
:103868001A606FF085007047012806D003380228D7
:103878008CBF6FF08500002070470020704710B59E
:103888000868FFF7F1FF002820DB4A68FF2A1CD0F0
:10389800D3B203F1804303F50E33C2F34234186800
:1038A800C2F3042204FA02F220EA02021A6049680A
:1038B800CBB203F1804303F50E33C1F3024218681B
:1038C800C1F304218A4002431A60002010BD086831
:1038D80008B5A0F13003782B0AD800F1804000F534
:1038E8000E304B680268934314BF0120022008BDC4
:1038F800FFF7BAFF002814BF01200220F7E770473E
:1039080043685B681B690B600020704743685B680D
:10391800586942400A4042405A6100207047436853
:103928005B6800209961704743685B680904996186
:103938000020704743685A6853694B405361002020
:10394800704710B503699868F8B1884219D1DC68E6
:1039580008689860A14200D1D860002008602AB1A8
:103968009A680A60DA68996002B9D960002010E0A4
:10397800814206D108682060D8688142EDD1DC60B8
:10398800EBE7044600680028F2D1002AE8D16FF07E
:10399800150010BDF0B544680120676888401E46D0
:1039A800C2F3801327EA00078B403B43636090FA19
:1039B800A0F7B7FA87F7D4F808C04FF0030E7F00D6
:1039C8000EFA07F72CEA070C90FAA0F7B7FA87F770
:1039D800C2F3C1137F00BB4043EA0C03A36090FA13
:1039E800A0F3B3FA83F3E7685B000EFA03F327EA60
:1039F800030790FAA0F3B3FA83F302F030055B00F3
:103A0800C2F341229A403A43202DE26016D1072999
:103A18002BD890FAA0F3226A2BB3B3FA83F39B0056
:103A28000F2101FA03F322EA030290FAA0F3B3FA92
:103A380083F39B0006FA03F31343236290FAA0F37F
:103A4800B3FA83F3226890FAA0F05B000321B0FA7E
:103A580080F02D0901FA03F3400022EA03038540B0
:103A68001D432560F0BD2B46D9E7030A616A93FA26
:103A7800A3F282B1B2FA82F292000F2793FAA3F36B
:103A8800B3FA83F307FA02F29B0021EA02029E408E
:103A980016436662D2E72A46EEE738B50446900335
:103AA8000D46134617D591070ED55A072ED5502225
:103AB800D8060BD542F4007219031AD561680123A0
:103AC8004968AB408B610DE01022F1E79906F3D508
:103AD80042F48062F0E7DA0313D5D80613D4C3F3AF
:103AE80040139A02606800232946FFF753FF00201D
:103AF80038BD5B03F6D50121A9402046FFF714FF26
:103B0800F0E73022EEE74FF40072EBE76FF0850044
:103B1800EEE770B50B468968054611B15E680C681A
:103B280001B970BD8A682A4002D04B683046984770
:103B38001CB1236821461C46F2E72346FAE7F8B58C
:103B48001F46044640680E461546FFF723FF112F0F
:103B580007D101212B0501FA06F104D563685B68DA
:103B680099610020F8BD2046FFF7DEFEF9E730B581
:103B7800036813600579046804EBC504A34202D303
:103B88006FF0010030BD5C798C4201D00833F0E75A
:103B98000020F7E7704740B1C368587810F001007B
:103BA8001EBF1878B0FA80F040097047EFF3118310
:103BB800102383F31288BFF36F8FFEE708B5FFF772
:103BC800F5FF10B5D0E9003433B90020E268537826
:103BD80043F00103537010BD204698470028F4D0E5
:103BE8000028B8BF4042E368FF28A8BFFF2018702C
:103BF800ECE700F064B900F054B9704708B5102438
:103C0800EFF3118384F31288BFF36F8FFFF7E5FAA0
:103C1800F6E790F90E308B4201D0FEF731BD002057
:103C2800704703460020C3E90200C3E90033704728
:103C38003AB18A4205D3C0E90212C0E90000002067
:103C480070476FF015007047FEF770BDD0E900327D
:103C580013605A600023C0E90033704708B5FFF7C6
:103C6800F5FF437B23F0020343730023836008BD01
:103C780038B504460D46FEF7E3FB637B43F00203C9
:103C88006373E5B1A5602B689D4209D16B68C4E9EF
:103C980000531C606C6012E06A689A42F6D01B6898
:103CA800002BF3D094F90E2093F90E108A42F3D02A
:103CB8009142F1DD5A68C4E9003214605C6038BD95
:103CC80010B5EFF31184102383F31288BFF36F8FBD
:103CD800FEF7CEFB84F31188BFF36F8F10BD38B5A4
:103CE8000446EFF31185102383F31288BFF36F8F17
:103CF800437B13F0280F0BD183680BB1FFF7AEFF9E
:103D0800637B51B903F0FB0363732046FEF7B0FBF6
:103D180085F31188BFF36F8F38BD03F0EB03F3E72A
:103D280001211838FFF7DBBF38B5EFF311851023F1
:103D380083F31288BFF36F8F0468A0420DD034B1AB
:103D48002046FFF78BFF04F1180000F02AF885F3EE
:103D58001188BFF36F8F204638BD0024F7E7EFF3D3
:103D68001181102282F31288BFF36F8F027BD20772
:103D78000CD581F31188BFF36F8F002383F311886B
:103D8800BFF36F8F0423184602DF7047437B1B077E
:103D980004D581F31188BFF36F8F70470122FEF7B6
:103DA8009BBB10B5EFF31184102282F31288BFF386
:103DB8006F8F03683BB1FEF7E3FD002084F31188A1
:103DC800BFF36F8F10BD6FF01500F7E710B400F167
:103DD8000C04C0E9034410BCFFF79DB910B50246B6
:103DE80001448A42134603D01C780132002CF8D1D2
:103DF800181A10BDF0B5C3F137070446FFB203F037
:103E08001F031046082BE6B233D0102B3ED06508AE
:103E1800A40844EA817445EAC1752D194FEA910254
:103E280042EB5102290941EA02716D1842EB121264
:103E3800290A41EA02616D1842EB1222290C41EA73
:103E480002416D1842EB1242AD1842F10002EC0833
:103E580044EA4274D10804EB8402A6EB4205EDB2B1
:103E6800092D0CD90134A5F10A0541F10001EDB283
:103E780012E0E40844EA417406F00705C908303541
:103E880054EA010200F8015BBCD1F0BD240944EA00
:103E9800017406F00F050909092D84BFED19EDB26B
:103EA800EDE70A44914200F1FF3300D1704710B5A5
:103EB80011F8014B03F8014F9142F9D110BD0244AA
:103EC8000346934200D1704703F8011BF9E738B560
:103ED8008B789B070D4609D5C4B24B682046984796
:103EE800002806DAAB7843F00403AB704FF0FF30DC
:103EF80038BD2046FCE70000014800687047000014
:043F08000002002093
:083F0C00B0C2FF7F01000000BC
:103F140095180008943F000881050008000000007F
:103F2400D12B000800000000AD1A00085C40000816
:103F3400F90E0008A83F0008AD1A00084840000820
:103F4400AD1A000834400008AD1A000820400008EB
:103F5400AD1A00080C400008AD1A0008F83F00082C
:103F6400AD1A0008E43F0008AD1A0008D03F00086D
:103F7400AD1A0008BC3F0008AD1B0008000000009B
:103F84006D0E0008000000001515000870400008C0
:103F9400FC450008000000002C4400083800002004
:103FA40000000000D14500080000000000000000EF
:103FB400340000202002002009460008484400087C
:103FC400FC4400083A000020AC0300201746000817
:103FD4005C440008FC4400083C000020BC030020B2
:103FE4002546000870440008FC4400083E000020F8
:103FF400CC0300203346000884440008FC44000835
:1040040040000020DC0300204146000898440008DA
:10401400FC44000842000020EC0300204F46000846
:10402400AC440008FC44000844000020FC030020C9
:104034005D460008C0440008FC4400084600002017
:104044000C0400206B460008D4440008FC4400081B
:10405400480000201C04002079460008E8440008B9
:10406400FC4400084A0000202C040020EF4500080E
:104074009C430008E843000836000020A00200200A
:1040840000000000CD31000800000000CD31000820
:1040940000000000CD31000800000000CD31000810
:1040A40000000000CD31000800000000CD31000800
:1040B400CF450008910E0008CD450008910E000878
:1040C400CB450008910E0008C9450008910E000870
:1040D400C7450008910E000800000000CD3100081B
:1040E40000000000CD31000800000000CD310008C0
:1040F40000000000CD31000800000000CD310008B0
:1041040000000000CD31000800000000CD3100089F
:1041140000000000CD31000870400008913500080F
:1041240070400008DB33000800000000CD310008B7
:104134007040000895350008C5450008910E000838
:1041440000000000CD31000800000000CD3100085F
:1041540000000000CD31000800000000CD3100084F
:1041640000000000CD31000800000000CD3100083F
:1041740000000000CD31000800000000CD3100082F
:1041840000000000CD31000800000000CD3100081F
:1041940000000000CD31000800000000CD3100080F
:1041A40000000000CD31000800000000CD310008FF
:1041B40000000000CD31000800000000CD310008EF
:1041C400C3450008910E000800000000CD3100082E
:1041D40000000000CD31000800000000CD310008CF
:1041E40000000000CD31000800000000CD310008BF
:1041F40000000000CD31000800000000CD310008AF
:1042040000000000CD31000800000000CD3100089E
:1042140000000000CD31000800000000CD3100088E
:1042240000000000CD31000800000000CD3100087E
:1042340000000000CD31000800000000CD3100086E
:1042440000000000CD31000800000000CD3100085E
:1042540000000000CD31000800000000CD3100084E
:1042640000000000CD31000800000000CD3100083E
:1042740000000000CD31000800000000CD3100082E
:1042840000000000CD31000800000000CD3100081E
:1042940000000000CD31000800000000CD3100080E
:1042A40000000000CD31000800000000CD310008FE
:1042B40000000000CD31000800000000CD310008EE
:1042C40000000000CD31000800000000CD310008DE
:1042D40000000000CD31000800000000CD310008CE
:1042E40000000000CD31000800000000CD310008BE
:1042F40000000000CD31000800000000CD310008AE
:1043040000000000CD31000800000000CD3100089D
:1043140001020000FF070000000000007B00000015
:104324000000000000000000000000000000000089
:104334000000000000000000000000000000000079
:104344000000000000000000000000000000000069
:104354000000000000000000000000000000000059
:1043640044000000004000000000002000000000A5
:1043740000000B0602000000804300080000000853
:10438400B44500082600020700000020BC450008D0
:1043940020000B11080000200000000000000000B5
:1043A40040420F0040420F00000000000064004043
:1043B400006400404000000000000002993300083F
:1043C400C8430008D043000801000000D843000897
:1043D4000200000009060000000200002906000097
:1043E400000000006933000891170008EB3500084D
:1043F400A7370008751300087D360008E513000888
:1044040071160008273300087B3300085513000891
:1044140071330008010000000100010001000400E4
:104424000000100008000004153800084D3800088A
:10443400000000001D180008D73800080000000024
:1044440087380008FFFF0000002002400800000039
:104454003000000000010000FFFF0000001C0240CB
:10446400070000003000000080000000FFFF000093
:104474000018024006000000300000004000000068
:10448400FFFF00000014024005000000300000009F
:1044940020000000FFFF00000010024004000000A4
:1044A4003000000010000000FFFF0000000C02407C
:1044B400030000003000000008000000FFFF0000BF
:1044C4000008024002000000300000000400000068
:1044D400FFFF000000040240010000003000000063
:1044E40002000000FFFF0000000002400000000086
:1044F4003000000001000000A33A00080939000858
:104504001539000827390008313900083D390008F9
:10451400FD1900084B390008000000005C40000849
:104524004840000834400008204000080C400008BF
:10453400F83F0008E43F0008D03F0008BC3F0008F3
:104544000000000000000000000000000000000067
:10455400000000000000000000000000143F0008FC
:10456400143F00087C3F0008843F0008943F000883
:10457400943F000843414E20646576696365206E6C
:104584006F74207265616479004572726F72207372
:1045940074617274696E672043414E20636F6E7458
:1045A400726F6C6C65722028657272202564290014
:1045B400464C4153485F30005352414D5F30000A2E
:1045C40006050504010301020101010001696E747D
:1045D4006572727570742D636F6E74726F6C6C6536
:1045E400724034303031336330300063616E4034B4
:1045F400303030363430300072636340343030321F
:1046040033383030006770696F40343030323230C4
:104614003030006770696F4034303032316330308D
:10462400006770696F4034303032313830300067A1
:1046340070696F4034303032313430300067706923
:104644006F403430303231303030006770696F4041
:104654003430303230633030006770696F4034304A
:10466400303230383030006770696F403430303267
:1046740030343030006770696F403430303230305D
:1046840030300000000000000000000102030406B6
:104694000708096D61696E002A2A2A20426F6F7427
:1046A400696E67205A6570687972204F532062756D
:1046B400696C642076332E372E302D333233332D0C
:1046C40067346363333133346161316331202A2ABF
:1046D4002A0A00286E756C6C29002A666C6F617456
:0446E4002A000000A8
:1046E80099310008E5050008000000001D320008A7
:1046F80000000000000000000024F4001C0000205E
:104708001C000020FFFFFFFFFFFFFFFFFFFFFFFF71
:04471800FFFFFFFFA1
:10471C00000000000000000000000000000000008D
:08472C00000000000000000085
:0447340015E015E097
:0400000508000909DD
:00000001FF
